{
  "contractName": "HoldableERC20",
  "abi": [
    {
      "inputs": [],
      "payable": false,
      "stateMutability": "nonpayable",
      "type": "constructor"
    },
    {
      "anonymous": false,
      "inputs": [
        {
          "indexed": true,
          "internalType": "address",
          "name": "owner",
          "type": "address"
        },
        {
          "indexed": true,
          "internalType": "address",
          "name": "spender",
          "type": "address"
        },
        {
          "indexed": false,
          "internalType": "uint256",
          "name": "value",
          "type": "uint256"
        }
      ],
      "name": "Approval",
      "type": "event"
    },
    {
      "anonymous": false,
      "inputs": [
        {
          "indexed": true,
          "internalType": "address",
          "name": "from",
          "type": "address"
        },
        {
          "indexed": true,
          "internalType": "address",
          "name": "to",
          "type": "address"
        },
        {
          "indexed": false,
          "internalType": "uint256",
          "name": "value",
          "type": "uint256"
        }
      ],
      "name": "Transfer",
      "type": "event"
    },
    {
      "constant": true,
      "inputs": [],
      "name": "INITIAL_SUPPLY",
      "outputs": [
        {
          "internalType": "uint256",
          "name": "",
          "type": "uint256"
        }
      ],
      "payable": false,
      "stateMutability": "view",
      "type": "function"
    },
    {
      "constant": true,
      "inputs": [],
      "name": "decimals",
      "outputs": [
        {
          "internalType": "uint8",
          "name": "",
          "type": "uint8"
        }
      ],
      "payable": false,
      "stateMutability": "view",
      "type": "function"
    },
    {
      "constant": true,
      "inputs": [],
      "name": "name",
      "outputs": [
        {
          "internalType": "string",
          "name": "",
          "type": "string"
        }
      ],
      "payable": false,
      "stateMutability": "view",
      "type": "function"
    },
    {
      "constant": true,
      "inputs": [],
      "name": "symbol",
      "outputs": [
        {
          "internalType": "string",
          "name": "",
          "type": "string"
        }
      ],
      "payable": false,
      "stateMutability": "view",
      "type": "function"
    },
    {
      "constant": true,
      "inputs": [
        {
          "internalType": "address",
          "name": "account",
          "type": "address"
        }
      ],
      "name": "balanceOf",
      "outputs": [
        {
          "internalType": "uint256",
          "name": "",
          "type": "uint256"
        }
      ],
      "payable": false,
      "stateMutability": "view",
      "type": "function"
    },
    {
      "constant": false,
      "inputs": [
        {
          "internalType": "address",
          "name": "sender",
          "type": "address"
        },
        {
          "internalType": "address",
          "name": "recipient",
          "type": "address"
        },
        {
          "internalType": "uint256",
          "name": "amount",
          "type": "uint256"
        },
        {
          "internalType": "uint256",
          "name": "holdId",
          "type": "uint256"
        }
      ],
      "name": "holdFrom",
      "outputs": [
        {
          "internalType": "bool",
          "name": "",
          "type": "bool"
        }
      ],
      "payable": false,
      "stateMutability": "nonpayable",
      "type": "function"
    },
    {
      "constant": false,
      "inputs": [
        {
          "internalType": "address",
          "name": "recipient",
          "type": "address"
        },
        {
          "internalType": "uint256",
          "name": "amount",
          "type": "uint256"
        },
        {
          "internalType": "uint256",
          "name": "holdId",
          "type": "uint256"
        }
      ],
      "name": "hold",
      "outputs": [
        {
          "internalType": "bool",
          "name": "",
          "type": "bool"
        }
      ],
      "payable": false,
      "stateMutability": "nonpayable",
      "type": "function"
    },
    {
      "constant": false,
      "inputs": [
        {
          "internalType": "uint256",
          "name": "holdId",
          "type": "uint256"
        }
      ],
      "name": "executeHold",
      "outputs": [
        {
          "internalType": "bool",
          "name": "",
          "type": "bool"
        }
      ],
      "payable": false,
      "stateMutability": "nonpayable",
      "type": "function"
    },
    {
      "constant": false,
      "inputs": [
        {
          "internalType": "uint256",
          "name": "holdId",
          "type": "uint256"
        }
      ],
      "name": "removeHold",
      "outputs": [
        {
          "internalType": "bool",
          "name": "",
          "type": "bool"
        }
      ],
      "payable": false,
      "stateMutability": "nonpayable",
      "type": "function"
    },
    {
      "constant": true,
      "inputs": [],
      "name": "totalSupply",
      "outputs": [
        {
          "internalType": "uint256",
          "name": "",
          "type": "uint256"
        }
      ],
      "payable": false,
      "stateMutability": "view",
      "type": "function"
    },
    {
      "constant": false,
      "inputs": [
        {
          "internalType": "address",
          "name": "recipient",
          "type": "address"
        },
        {
          "internalType": "uint256",
          "name": "amount",
          "type": "uint256"
        }
      ],
      "name": "transfer",
      "outputs": [
        {
          "internalType": "bool",
          "name": "",
          "type": "bool"
        }
      ],
      "payable": false,
      "stateMutability": "nonpayable",
      "type": "function"
    },
    {
      "constant": true,
      "inputs": [
        {
          "internalType": "address",
          "name": "owner",
          "type": "address"
        },
        {
          "internalType": "address",
          "name": "spender",
          "type": "address"
        }
      ],
      "name": "allowance",
      "outputs": [
        {
          "internalType": "uint256",
          "name": "",
          "type": "uint256"
        }
      ],
      "payable": false,
      "stateMutability": "view",
      "type": "function"
    },
    {
      "constant": false,
      "inputs": [
        {
          "internalType": "address",
          "name": "spender",
          "type": "address"
        },
        {
          "internalType": "uint256",
          "name": "amount",
          "type": "uint256"
        }
      ],
      "name": "approve",
      "outputs": [
        {
          "internalType": "bool",
          "name": "",
          "type": "bool"
        }
      ],
      "payable": false,
      "stateMutability": "nonpayable",
      "type": "function"
    },
    {
      "constant": false,
      "inputs": [
        {
          "internalType": "address",
          "name": "sender",
          "type": "address"
        },
        {
          "internalType": "address",
          "name": "recipient",
          "type": "address"
        },
        {
          "internalType": "uint256",
          "name": "amount",
          "type": "uint256"
        }
      ],
      "name": "transferFrom",
      "outputs": [
        {
          "internalType": "bool",
          "name": "",
          "type": "bool"
        }
      ],
      "payable": false,
      "stateMutability": "nonpayable",
      "type": "function"
    },
    {
      "constant": false,
      "inputs": [
        {
          "internalType": "address",
          "name": "spender",
          "type": "address"
        },
        {
          "internalType": "uint256",
          "name": "addedValue",
          "type": "uint256"
        }
      ],
      "name": "increaseAllowance",
      "outputs": [
        {
          "internalType": "bool",
          "name": "",
          "type": "bool"
        }
      ],
      "payable": false,
      "stateMutability": "nonpayable",
      "type": "function"
    },
    {
      "constant": false,
      "inputs": [
        {
          "internalType": "address",
          "name": "spender",
          "type": "address"
        },
        {
          "internalType": "uint256",
          "name": "subtractedValue",
          "type": "uint256"
        }
      ],
      "name": "decreaseAllowance",
      "outputs": [
        {
          "internalType": "bool",
          "name": "",
          "type": "bool"
        }
      ],
      "payable": false,
      "stateMutability": "nonpayable",
      "type": "function"
    }
  ],
  "bytecode": "0x60c0604052600c60808190527f41646861726120546f6b656e000000000000000000000000000000000000000060a09081526200004091600891906200025e565b506040805180820190915260038082527f4144480000000000000000000000000000000000000000000000000000000000602090920191825262000087916009916200025e565b50600a805460ff19166002179055612ee0600b55348015620000a857600080fd5b50620000bd33600b54620000c360201b60201c565b62000303565b6001600160a01b0382166200013957604080517f08c379a000000000000000000000000000000000000000000000000000000000815260206004820152601f60248201527f45524332303a206d696e7420746f20746865207a65726f206164647265737300604482015290519081900360640190fd5b6200015581600754620001e260201b62000ad51790919060201c565b6007556001600160a01b0382166000908152600360209081526040909120546200018a91839062000ad5620001e2821b17901c565b6001600160a01b03831660008181526003602090815260408083209490945583518581529351929391927fddf252ad1be2c89b69c2b068fc378daa952ba7f163c4a11628f55a4df523b3ef9281900390910190a35050565b6000828201838110156200025757604080517f08c379a000000000000000000000000000000000000000000000000000000000815260206004820152601b60248201527f536166654d6174683a206164646974696f6e206f766572666c6f770000000000604482015290519081900360640190fd5b9392505050565b828054600181600116156101000203166002900490600052602060002090601f016020900481019282601f10620002a157805160ff1916838001178555620002d1565b82800160010185558215620002d1579182015b82811115620002d1578251825591602001919060010190620002b4565b50620002df929150620002e3565b5090565b6200030091905b80821115620002df5760008155600101620002ea565b90565b6110dd80620003136000396000f3fe608060405234801561001057600080fd5b50600436106101005760003560e01c8063313ce5671161009757806395d89b411161006657806395d89b4114610332578063a457c2d71461033a578063a9059cbb14610366578063dd62ed3e1461039257610100565b8063313ce5671461028657806339509351146102a45780633ca22cb1146102d057806370a082311461030c57610100565b806312c38364116100d357806312c383641461021157806318160ddd1461022e57806323b872dd146102485780632ff2e9dc1461027e57610100565b806306fdde031461010557806308e5382614610182578063095ea7b3146101b35780630cfd12bc146101df575b600080fd5b61010d6103c0565b6040805160208082528351818301528351919283929083019185019080838360005b8381101561014757818101518382015260200161012f565b50505050905090810190601f1680156101745780820380516001836020036101000a031916815260200191505b509250505060405180910390f35b61019f6004803603602081101561019857600080fd5b503561044e565b604080519115158252519081900360200190f35b61019f600480360360408110156101c957600080fd5b506001600160a01b0381351690602001356105ba565b61019f600480360360608110156101f557600080fd5b506001600160a01b0381351690602081013590604001356105d7565b61019f6004803603602081101561022757600080fd5b50356105f6565b6102366107bf565b60408051918252519081900360200190f35b61019f6004803603606081101561025e57600080fd5b506001600160a01b038135811691602081013590911690604001356107c5565b610236610848565b61028e61084e565b6040805160ff9092168252519081900360200190f35b61019f600480360360408110156102ba57600080fd5b506001600160a01b038135169060200135610857565b61019f600480360360808110156102e657600080fd5b506001600160a01b038135811691602081013590911690604081013590606001356108ab565b6102366004803603602081101561032257600080fd5b50356001600160a01b031661090e565b61010d610936565b61019f6004803603604081101561035057600080fd5b506001600160a01b038135169060200135610991565b61019f6004803603604081101561037c57600080fd5b506001600160a01b0381351690602001356109ff565b610236600480360360408110156103a857600080fd5b506001600160a01b0381358116916020013516610a13565b6008805460408051602060026001851615610100026000190190941693909304601f810184900484028201840190925281815292918301828280156104465780601f1061041b57610100808354040283529160200191610446565b820191906000526020600020905b81548152906001019060200180831161042957829003601f168201915b505050505081565b6000818152600660205260408120546001600160a01b03166104b7576040805162461bcd60e51b815260206004820152601d60248201527f486f6c6461626c6545524332303a20696e76616c696420686f6c644964000000604482015290519081900360640190fd5b6000828152600660209081526040808320546001600160a01b03168352600482529182902054825160608101909352603580845261052a939192610fde908301396000858152600660209081526040808320546001600160a01b031683526004909152902054919063ffffffff610a3e16565b600083815260066020908152604080832080546001600160a01b039081168552600484528285209590955560028101549054909416835260039091529020546105789163ffffffff610ad516565b600083815260066020818152604080842080546001600160a01b0316855260038352908420949094559490915290925281546001600160a01b03191690915590565b60006105ce6105c7610b36565b8484610b3a565b50600192915050565b60006105ec6105e4610b36565b858585610c26565b5060019392505050565b6000818152600660205260408120546001600160a01b031661065f576040805162461bcd60e51b815260206004820152601d60248201527f486f6c6461626c6545524332303a20696e76616c696420686f6c644964000000604482015290519081900360640190fd5b6000828152600660209081526040808320546001600160a01b0316835260048252918290205482516060810190935260358084526106d2939192610fde908301396000858152600660209081526040808320546001600160a01b031683526004909152902054919063ffffffff610a3e16565b600083815260066020908152604080832080546001600160a01b03908116855260048452828520959095556002810154600190910154909416835260039091529020546107249163ffffffff610ad516565b60008381526006602081815260408084206001810180546001600160a01b03908116875260038552838720979097559488905292825292548254600290930154845190815293519085169492909216927fddf252ad1be2c89b69c2b068fc378daa952ba7f163c4a11628f55a4df523b3ef929081900390910190a360009182526006602052604090912080546001600160a01b031916905590565b60075490565b60006107d2848484610df2565b6105ec846107de610b36565b61084385604051806060016040528060288152602001611013602891396001600160a01b038a1660009081526005602052604081209061081c610b36565b6001600160a01b03168152602081019190915260400160002054919063ffffffff610a3e16565b610b3a565b600b5481565b600a5460ff1681565b60006105ce610864610b36565b846108438560056000610875610b36565b6001600160a01b03908116825260208083019390935260409182016000908120918c16815292529020549063ffffffff610ad516565b60006108b985858585610c26565b610903856108c5610b36565b61084386604051806060016040528060288152602001611013602891396001600160a01b038b1660009081526005602052604081209061081c610b36565b506001949350505050565b6001600160a01b03166000908152600460209081526040808320546003909252909120540190565b6009805460408051602060026001851615610100026000190190941693909304601f810184900484028201840190925281815292918301828280156104465780601f1061041b57610100808354040283529160200191610446565b60006105ce61099e610b36565b846108438560405180606001604052806025815260200161108460259139600560006109c8610b36565b6001600160a01b03908116825260208083019390935260409182016000908120918d1681529252902054919063ffffffff610a3e16565b60006105ce610a0c610b36565b8484610df2565b6001600160a01b03918216600090815260056020908152604080832093909416825291909152205490565b60008184841115610acd5760405162461bcd60e51b81526004018080602001828103825283818151815260200191508051906020019080838360005b83811015610a92578181015183820152602001610a7a565b50505050905090810190601f168015610abf5780820380516001836020036101000a031916815260200191505b509250505060405180910390fd5b505050900390565b600082820183811015610b2f576040805162461bcd60e51b815260206004820152601b60248201527f536166654d6174683a206164646974696f6e206f766572666c6f770000000000604482015290519081900360640190fd5b9392505050565b3390565b6001600160a01b038316610b7f5760405162461bcd60e51b81526004018080602001828103825260248152602001806110606024913960400191505060405180910390fd5b6001600160a01b038216610bc45760405162461bcd60e51b8152600401808060200182810382526022815260200180610f746022913960400191505060405180910390fd5b6001600160a01b03808416600081815260056020908152604080832094871680845294825291829020859055815185815291517f8c5be1e5ebec7d5bd14f71427d1e84f3dd0314c0f7b2291e5b200ac8c7c3b9259281900390910190a3505050565b6001600160a01b038416610c6b5760405162461bcd60e51b815260040180806020018281038252602581526020018061103b6025913960400191505060405180910390fd5b6001600160a01b038316610cb05760405162461bcd60e51b8152600401808060200182810382526023815260200180610f516023913960400191505060405180910390fd5b6000818152600660205260409020546001600160a01b031615610d045760405162461bcd60e51b8152600401808060200182810382526022815260200180610f966022913960400191505060405180910390fd5b610d4782604051806060016040528060268152602001610fb8602691396001600160a01b038716600090815260036020526040902054919063ffffffff610a3e16565b6001600160a01b038516600090815260036020908152604080832093909355600490522054610d7c908363ffffffff610ad516565b6001600160a01b03948516600081815260046020908152604080832094909455835160608101855292835295871682870190815282840195865293815260069095529320925183549085166001600160a01b03199182161784559051600184018054919095169116179092559051600290910155565b6001600160a01b038316610e375760405162461bcd60e51b815260040180806020018281038252602581526020018061103b6025913960400191505060405180910390fd5b6001600160a01b038216610e7c5760405162461bcd60e51b8152600401808060200182810382526023815260200180610f516023913960400191505060405180910390fd5b610ebf81604051806060016040528060268152602001610fb8602691396001600160a01b038616600090815260036020526040902054919063ffffffff610a3e16565b6001600160a01b038085166000908152600360205260408082209390935590841681522054610ef4908263ffffffff610ad516565b6001600160a01b0380841660008181526003602090815260409182902094909455805185815290519193928716927fddf252ad1be2c89b69c2b068fc378daa952ba7f163c4a11628f55a4df523b3ef92918290030190a350505056fe45524332303a207472616e7366657220746f20746865207a65726f206164647265737345524332303a20617070726f766520746f20746865207a65726f2061646472657373486f6c6461626c6545524332303a20686f6c644964206e6f7420616363657074656445524332303a207472616e7366657220616d6f756e7420657863656564732062616c616e6365486f6c6461626c6545524332303a20666174616c206572726f7220696e20686f6c642062616c616e63657320616c676f726974686d45524332303a207472616e7366657220616d6f756e74206578636565647320616c6c6f77616e636545524332303a207472616e736665722066726f6d20746865207a65726f206164647265737345524332303a20617070726f76652066726f6d20746865207a65726f206164647265737345524332303a2064656372656173656420616c6c6f77616e63652062656c6f77207a65726fa265627a7a72315820c7c354d04489813292737c68ed82be33ff3ca85d6096d0398ccecb884c6fae7564736f6c634300050d0032",
  "source": "pragma solidity ^0.5.8;\nimport \"openzeppelin-solidity/contracts/token/ERC20/ERC20.sol\";\n\n/* import \"../../GSN/Context.sol\"; */\n/* import \"./IERC20.sol\"; */\n/* import \"../../math/SafeMath.sol\"; */\n\n/**\n * @dev Implementation of the {IERC20} interface.\n *\n * This implementation is agnostic to the way tokens are created. This means\n * that a supply mechanism has to be added in a derived contract using {_mint}.\n * For a generic mechanism see {ERC20Mintable}.\n *\n * TIP: For a detailed writeup see our guide\n * https://forum.zeppelin.solutions/t/how-to-implement-erc20-supply-mechanisms/226[How\n * to implement supply mechanisms].\n *\n * We have followed general OpenZeppelin guidelines: functions revert instead\n * of returning `false` on failure. This behavior is nonetheless conventional\n * and does not conflict with the expectations of ERC20 applications.\n *\n * Additionally, an {Approval} event is emitted on calls to {transferFrom}.\n * This allows applications to reconstruct the allowance for all accounts just\n * by listening to said events. Other implementations of the EIP may not emit\n * these events, as it isn't required by the specification.\n *\n * Finally, the non-standard {decreaseAllowance} and {increaseAllowance}\n * functions have been added to mitigate the well-known issues around setting\n * allowances. See {IERC20-approve}.\n */\ncontract HoldableERC20 is ERC20 {\n    using SafeMath for uint256;\n\n    mapping (address => uint256) private _balances;\n    mapping (address => uint256) private _holdBalances;\n\n    mapping (address => mapping (address => uint256)) private _allowances;\n\n    struct holdStruct {\n      address from;\n      address to;\n      uint256 amount;\n    }\n    mapping(uint256 => holdStruct) private _holdData;\n\n    uint256 private _totalSupply;\n    string public name = \"Adhara Token\";\n    string public symbol = \"ADH\";\n    uint8 public decimals = 2;\n    uint public INITIAL_SUPPLY = 12000;\n\n\n    constructor() public {\n      _mint(msg.sender, INITIAL_SUPPLY);\n    }\n\n    function balanceOf(address account) public view returns (uint256) {\n      return _balances[account] + _holdBalances[account];\n    }\n\n    function holdFrom(address sender, address recipient, uint256 amount, uint256 holdId) public returns (bool) {\n        _hold(sender, recipient, amount, holdId);\n        _approve(sender, _msgSender(), _allowances[sender][_msgSender()].sub(amount, \"ERC20: transfer amount exceeds allowance\"));\n        return true;\n    }\n    function hold(address recipient, uint256 amount, uint256 holdId) public returns (bool) {\n        _hold(_msgSender(), recipient, amount, holdId);\n        return true;\n    }\n    function _hold(address sender, address recipient, uint256 amount, uint256 holdId) internal {\n        require(sender != address(0), \"ERC20: transfer from the zero address\");\n        require(recipient != address(0), \"ERC20: transfer to the zero address\");\n        require(_holdData[holdId].from == address(0), \"HoldableERC20: holdId not accepted\");\n\n        _balances[sender] = _balances[sender].sub(amount, \"ERC20: transfer amount exceeds balance\");\n\t    /* Hold balances are updated */\n\t    _holdBalances[sender] = _holdBalances[sender].add(amount);\n        /* Hold data structure is created */\n        _holdData[holdId] = holdStruct({from:sender,to:recipient,amount:amount});\n        /* No event is emitted as no transfer between users has been performed */\n    }\n    function executeHold(uint256 holdId) public returns (bool){\n        require(_holdData[holdId].from != address(0), \"HoldableERC20: invalid holdId\");\n\n        _holdBalances[_holdData[holdId].from] = _holdBalances[_holdData[holdId].from].sub(\n            _holdBalances[_holdData[holdId].from],\n            \"HoldableERC20: fatal error in hold balances algorithm\");\n        _balances[_holdData[holdId].to] = _balances[_holdData[holdId].to].add(\n            _holdData[holdId].amount);\n        emit Transfer(_holdData[holdId].from, _holdData[holdId].to, _holdData[holdId].amount);\n        /* \"Clean\" hold Id data, to avoid repeated calls */\n        _holdData[holdId].from = address(0);\n    }\n    function removeHold(uint256 holdId) public returns (bool){\n        require(_holdData[holdId].from != address(0), \"HoldableERC20: invalid holdId\");\n\n        _holdBalances[_holdData[holdId].from] = _holdBalances[_holdData[holdId].from].sub(\n            _holdBalances[_holdData[holdId].from],\n            \"HoldableERC20: fatal error in hold balances algorithm\");\n        _balances[_holdData[holdId].from] = _balances[_holdData[holdId].from].add(\n            _holdData[holdId].amount);\n        /* \"Clean\" hold Id data, to avoid repeated calls */\n        _holdData[holdId].from = address(0);\n    }\n    /**\n     * @dev See {IERC20-totalSupply}.\n     */\n    function totalSupply() public view returns (uint256) {\n        return _totalSupply;\n    }\n\n    /**\n     * @dev See {IERC20-balanceOf}.\n     */\n    /* function balanceOf(address account) public view returns (uint256) { */\n    /*     return _balances[account]; */\n    /* } */\n\n    /**\n     * @dev See {IERC20-transfer}.\n     *\n     * Requirements:\n     *\n     * - `recipient` cannot be the zero address.\n     * - the caller must have a balance of at least `amount`.\n     */\n    function transfer(address recipient, uint256 amount) public returns (bool) {\n        _transfer(_msgSender(), recipient, amount);\n        return true;\n    }\n\n    /**\n     * @dev See {IERC20-allowance}.\n     */\n    function allowance(address owner, address spender) public view returns (uint256) {\n        return _allowances[owner][spender];\n    }\n\n    /**\n     * @dev See {IERC20-approve}.\n     *\n     * Requirements:\n     *\n     * - `spender` cannot be the zero address.\n     */\n    function approve(address spender, uint256 amount) public returns (bool) {\n        _approve(_msgSender(), spender, amount);\n        return true;\n    }\n\n    /**\n     * @dev See {IERC20-transferFrom}.\n     *\n     * Emits an {Approval} event indicating the updated allowance. This is not\n     * required by the EIP. See the note at the beginning of {ERC20};\n     *\n     * Requirements:\n     * - `sender` and `recipient` cannot be the zero address.\n     * - `sender` must have a balance of at least `amount`.\n     * - the caller must have allowance for `sender`'s tokens of at least\n     * `amount`.\n     */\n    function transferFrom(address sender, address recipient, uint256 amount) public returns (bool) {\n        _transfer(sender, recipient, amount);\n        _approve(sender, _msgSender(), _allowances[sender][_msgSender()].sub(amount, \"ERC20: transfer amount exceeds allowance\"));\n        return true;\n    }\n\n    /**\n     * @dev Atomically increases the allowance granted to `spender` by the caller.\n     *\n     * This is an alternative to {approve} that can be used as a mitigation for\n     * problems described in {IERC20-approve}.\n     *\n     * Emits an {Approval} event indicating the updated allowance.\n     *\n     * Requirements:\n     *\n     * - `spender` cannot be the zero address.\n     */\n    function increaseAllowance(address spender, uint256 addedValue) public returns (bool) {\n        _approve(_msgSender(), spender, _allowances[_msgSender()][spender].add(addedValue));\n        return true;\n    }\n\n    /**\n     * @dev Atomically decreases the allowance granted to `spender` by the caller.\n     *\n     * This is an alternative to {approve} that can be used as a mitigation for\n     * problems described in {IERC20-approve}.\n     *\n     * Emits an {Approval} event indicating the updated allowance.\n     *\n     * Requirements:\n     *\n     * - `spender` cannot be the zero address.\n     * - `spender` must have allowance for the caller of at least\n     * `subtractedValue`.\n     */\n    function decreaseAllowance(address spender, uint256 subtractedValue) public returns (bool) {\n        _approve(_msgSender(), spender, _allowances[_msgSender()][spender].sub(subtractedValue, \"ERC20: decreased allowance below zero\"));\n        return true;\n    }\n\n    /**\n     * @dev Moves tokens `amount` from `sender` to `recipient`.\n     *\n     * This is internal function is equivalent to {transfer}, and can be used to\n     * e.g. implement automatic token fees, slashing mechanisms, etc.\n     *\n     * Emits a {Transfer} event.\n     *\n     * Requirements:\n     *\n     * - `sender` cannot be the zero address.\n     * - `recipient` cannot be the zero address.\n     * - `sender` must have a balance of at least `amount`.\n     */\n    function _transfer(address sender, address recipient, uint256 amount) internal {\n        require(sender != address(0), \"ERC20: transfer from the zero address\");\n        require(recipient != address(0), \"ERC20: transfer to the zero address\");\n\n        _balances[sender] = _balances[sender].sub(amount, \"ERC20: transfer amount exceeds balance\");\n        _balances[recipient] = _balances[recipient].add(amount);\n        emit Transfer(sender, recipient, amount);\n    }\n\n    /** @dev Creates `amount` tokens and assigns them to `account`, increasing\n     * the total supply.\n     *\n     * Emits a {Transfer} event with `from` set to the zero address.\n     *\n     * Requirements\n     *\n     * - `to` cannot be the zero address.\n     */\n    function _mint(address account, uint256 amount) internal {\n        require(account != address(0), \"ERC20: mint to the zero address\");\n\n        _totalSupply = _totalSupply.add(amount);\n        _balances[account] = _balances[account].add(amount);\n        emit Transfer(address(0), account, amount);\n    }\n\n    /**\n     * @dev Destroys `amount` tokens from `account`, reducing the\n     * total supply.\n     *\n     * Emits a {Transfer} event with `to` set to the zero address.\n     *\n     * Requirements\n     *\n     * - `account` cannot be the zero address.\n     * - `account` must have at least `amount` tokens.\n     */\n    function _burn(address account, uint256 amount) internal {\n        require(account != address(0), \"ERC20: burn from the zero address\");\n\n        _balances[account] = _balances[account].sub(amount, \"ERC20: burn amount exceeds balance\");\n        _totalSupply = _totalSupply.sub(amount);\n        emit Transfer(account, address(0), amount);\n    }\n\n    /**\n     * @dev Sets `amount` as the allowance of `spender` over the `owner`s tokens.\n     *\n     * This is internal function is equivalent to `approve`, and can be used to\n     * e.g. set automatic allowances for certain subsystems, etc.\n     *\n     * Emits an {Approval} event.\n     *\n     * Requirements:\n     *\n     * - `owner` cannot be the zero address.\n     * - `spender` cannot be the zero address.\n     */\n    function _approve(address owner, address spender, uint256 amount) internal {\n        require(owner != address(0), \"ERC20: approve from the zero address\");\n        require(spender != address(0), \"ERC20: approve to the zero address\");\n\n        _allowances[owner][spender] = amount;\n        emit Approval(owner, spender, amount);\n    }\n\n    /**\n     * @dev Destroys `amount` tokens from `account`.`amount` is then deducted\n     * from the caller's allowance.\n     *\n     * See {_burn} and {_approve}.\n     */\n    function _burnFrom(address account, uint256 amount) internal {\n        _burn(account, amount);\n        _approve(account, _msgSender(), _allowances[account][_msgSender()].sub(amount, \"ERC20: burn amount exceeds allowance\"));\n    }\n}\n",
  "sourcePath": "/home/jredondoh/adhara/HoldableERC20/contracts/HoldableToken.sol",
  "compiler": {
    "name": "solc",
    "version": "0.5.13+commit.5b0b510c.Emscripten.clang"
  },
  "schemaVersion": "3.0.11",
  "updatedAt": "2019-12-14T19:20:44.447Z",
  "devdoc": {
    "details": "Implementation of the {IERC20} interface. * This implementation is agnostic to the way tokens are created. This means that a supply mechanism has to be added in a derived contract using {_mint}. For a generic mechanism see {ERC20Mintable}. * TIP: For a detailed writeup see our guide https://forum.zeppelin.solutions/t/how-to-implement-erc20-supply-mechanisms/226[How to implement supply mechanisms]. * We have followed general OpenZeppelin guidelines: functions revert instead of returning `false` on failure. This behavior is nonetheless conventional and does not conflict with the expectations of ERC20 applications. * Additionally, an {Approval} event is emitted on calls to {transferFrom}. This allows applications to reconstruct the allowance for all accounts just by listening to said events. Other implementations of the EIP may not emit these events, as it isn't required by the specification. * Finally, the non-standard {decreaseAllowance} and {increaseAllowance} functions have been added to mitigate the well-known issues around setting allowances. See {IERC20-approve}.",
    "methods": {
      "allowance(address,address)": {
        "details": "See {IERC20-allowance}."
      },
      "approve(address,uint256)": {
        "details": "See {IERC20-approve}.     * Requirements:     * - `spender` cannot be the zero address."
      },
      "decreaseAllowance(address,uint256)": {
        "details": "Atomically decreases the allowance granted to `spender` by the caller.     * This is an alternative to {approve} that can be used as a mitigation for problems described in {IERC20-approve}.     * Emits an {Approval} event indicating the updated allowance.     * Requirements:     * - `spender` cannot be the zero address. - `spender` must have allowance for the caller of at least `subtractedValue`."
      },
      "increaseAllowance(address,uint256)": {
        "details": "Atomically increases the allowance granted to `spender` by the caller.     * This is an alternative to {approve} that can be used as a mitigation for problems described in {IERC20-approve}.     * Emits an {Approval} event indicating the updated allowance.     * Requirements:     * - `spender` cannot be the zero address."
      },
      "totalSupply()": {
        "details": "See {IERC20-totalSupply}."
      },
      "transfer(address,uint256)": {
        "details": "See {IERC20-transfer}.     * Requirements:     * - `recipient` cannot be the zero address. - the caller must have a balance of at least `amount`."
      },
      "transferFrom(address,address,uint256)": {
        "details": "See {IERC20-transferFrom}.     * Emits an {Approval} event indicating the updated allowance. This is not required by the EIP. See the note at the beginning of {ERC20};     * Requirements: - `sender` and `recipient` cannot be the zero address. - `sender` must have a balance of at least `amount`. - the caller must have allowance for `sender`'s tokens of at least `amount`."
      }
    }
  },
  "userdoc": {
    "methods": {}
  }
}